{
  "_format": "hh-sol-artifact-1",
  "contractName": "BusTicket",
  "sourceName": "contracts/BusTicket.sol",
  "abi": [
    {
      "inputs": [
        {
          "internalType": "uint256",
          "name": "_ticketPrice",
          "type": "uint256"
        }
      ],
      "stateMutability": "nonpayable",
      "type": "constructor"
    },
    {
      "anonymous": false,
      "inputs": [
        {
          "indexed": false,
          "internalType": "uint256",
          "name": "newPrice",
          "type": "uint256"
        }
      ],
      "name": "PriceChanged",
      "type": "event"
    },
    {
      "anonymous": false,
      "inputs": [
        {
          "indexed": false,
          "internalType": "address",
          "name": "buyer",
          "type": "address"
        },
        {
          "indexed": false,
          "internalType": "uint256",
          "name": "amount",
          "type": "uint256"
        }
      ],
      "name": "TicketPurchased",
      "type": "event"
    },
    {
      "inputs": [],
      "name": "buyTicket",
      "outputs": [],
      "stateMutability": "payable",
      "type": "function"
    },
    {
      "inputs": [
        {
          "internalType": "address",
          "name": "_user",
          "type": "address"
        }
      ],
      "name": "getTicketBalance",
      "outputs": [
        {
          "internalType": "uint256",
          "name": "",
          "type": "uint256"
        }
      ],
      "stateMutability": "view",
      "type": "function"
    },
    {
      "inputs": [],
      "name": "owner",
      "outputs": [
        {
          "internalType": "address",
          "name": "",
          "type": "address"
        }
      ],
      "stateMutability": "view",
      "type": "function"
    },
    {
      "inputs": [
        {
          "internalType": "uint256",
          "name": "_newPrice",
          "type": "uint256"
        }
      ],
      "name": "setTicketPrice",
      "outputs": [],
      "stateMutability": "nonpayable",
      "type": "function"
    },
    {
      "inputs": [],
      "name": "ticketPrice",
      "outputs": [
        {
          "internalType": "uint256",
          "name": "",
          "type": "uint256"
        }
      ],
      "stateMutability": "view",
      "type": "function"
    },
    {
      "inputs": [
        {
          "internalType": "address",
          "name": "",
          "type": "address"
        }
      ],
      "name": "tickets",
      "outputs": [
        {
          "internalType": "uint256",
          "name": "",
          "type": "uint256"
        }
      ],
      "stateMutability": "view",
      "type": "function"
    }
  ],
  "bytecode": "0x608060405234801561001057600080fd5b506040516107bc3803806107bc833981810160405281019061003291906100ba565b336000806101000a81548173ffffffffffffffffffffffffffffffffffffffff021916908373ffffffffffffffffffffffffffffffffffffffff16021790555080600181905550506100e7565b600080fd5b6000819050919050565b61009781610084565b81146100a257600080fd5b50565b6000815190506100b48161008e565b92915050565b6000602082840312156100d0576100cf61007f565b5b60006100de848285016100a5565b91505092915050565b6106c6806100f66000396000f3fe6080604052600436106100555760003560e01c80631209b1f61461005a57806315981650146100855780636dcbf2a3146100ae5780638da5cb5b146100eb578063e5da378f14610116578063edca914c14610153575b600080fd5b34801561006657600080fd5b5061006f61015d565b60405161007c91906103a8565b60405180910390f35b34801561009157600080fd5b506100ac60048036038101906100a791906103f4565b610163565b005b3480156100ba57600080fd5b506100d560048036038101906100d0919061047f565b610232565b6040516100e291906103a8565b60405180910390f35b3480156100f757600080fd5b5061010061024a565b60405161010d91906104bb565b60405180910390f35b34801561012257600080fd5b5061013d6004803603810190610138919061047f565b61026e565b60405161014a91906103a8565b60405180910390f35b61015b6102b7565b005b60015481565b60008054906101000a900473ffffffffffffffffffffffffffffffffffffffff1673ffffffffffffffffffffffffffffffffffffffff163373ffffffffffffffffffffffffffffffffffffffff16146101f1576040517f08c379a00000000000000000000000000000000000000000000000000000000081526004016101e890610533565b60405180910390fd5b806001819055507fa6dc15bdb68da224c66db4b3838d9a2b205138e8cff6774e57d0af91e196d6228160405161022791906103a8565b60405180910390a150565b60026020528060005260406000206000915090505481565b60008054906101000a900473ffffffffffffffffffffffffffffffffffffffff1681565b6000600260008373ffffffffffffffffffffffffffffffffffffffff1673ffffffffffffffffffffffffffffffffffffffff168152602001908152602001600020549050919050565b6001543410156102fc576040517f08c379a00000000000000000000000000000000000000000000000000000000081526004016102f39061059f565b60405180910390fd5b6001600260003373ffffffffffffffffffffffffffffffffffffffff1673ffffffffffffffffffffffffffffffffffffffff168152602001908152602001600020600082825461034c91906105ee565b925050819055507f0668f5b446eb814fe35b3206f43f14bd8567ba04ddaf7a3ee56516929ab22ccb336001604051610385929190610667565b60405180910390a1565b6000819050919050565b6103a28161038f565b82525050565b60006020820190506103bd6000830184610399565b92915050565b600080fd5b6103d18161038f565b81146103dc57600080fd5b50565b6000813590506103ee816103c8565b92915050565b60006020828403121561040a576104096103c3565b5b6000610418848285016103df565b91505092915050565b600073ffffffffffffffffffffffffffffffffffffffff82169050919050565b600061044c82610421565b9050919050565b61045c81610441565b811461046757600080fd5b50565b60008135905061047981610453565b92915050565b600060208284031215610495576104946103c3565b5b60006104a38482850161046a565b91505092915050565b6104b581610441565b82525050565b60006020820190506104d060008301846104ac565b92915050565b600082825260208201905092915050565b7f4f6e6c79206f776e65722063616e206368616e67652070726963650000000000600082015250565b600061051d601b836104d6565b9150610528826104e7565b602082019050919050565b6000602082019050818103600083015261054c81610510565b9050919050565b7f496e73756666696369656e74207061796d656e74000000000000000000000000600082015250565b60006105896014836104d6565b915061059482610553565b602082019050919050565b600060208201905081810360008301526105b88161057c565b9050919050565b7f4e487b7100000000000000000000000000000000000000000000000000000000600052601160045260246000fd5b60006105f98261038f565b91506106048361038f565b925082820190508082111561061c5761061b6105bf565b5b92915050565b6000819050919050565b6000819050919050565b600061065161064c61064784610622565b61062c565b61038f565b9050919050565b61066181610636565b82525050565b600060408201905061067c60008301856104ac565b6106896020830184610658565b939250505056fea264697066735822122002043385dc858b25ebdbafea2e10a4a7819d67d3c6e0b55015c5770e3e74a98364736f6c63430008130033",
  "linkReferences": {},
  "deployedLinkReferences": {}
}