{
  "_format": "hh-sol-artifact-1",
  "contractName": "BusTicket",
  "sourceName": "contracts/BusTicket.sol",
  "abi": [
    {
      "inputs": [],
      "stateMutability": "nonpayable",
      "type": "constructor"
    },
    {
      "anonymous": false,
      "inputs": [
        {
          "indexed": true,
          "internalType": "address",
          "name": "owner",
          "type": "address"
        },
        {
          "indexed": false,
          "internalType": "uint256",
          "name": "ticketId",
          "type": "uint256"
        }
      ],
      "name": "TicketCancelled",
      "type": "event"
    },
    {
      "anonymous": false,
      "inputs": [
        {
          "indexed": true,
          "internalType": "address",
          "name": "buyer",
          "type": "address"
        },
        {
          "indexed": false,
          "internalType": "uint256",
          "name": "ticketId",
          "type": "uint256"
        },
        {
          "indexed": false,
          "internalType": "uint256",
          "name": "busId",
          "type": "uint256"
        },
        {
          "indexed": false,
          "internalType": "uint256[]",
          "name": "seatNumbers",
          "type": "uint256[]"
        }
      ],
      "name": "TicketPurchased",
      "type": "event"
    },
    {
      "inputs": [
        {
          "internalType": "uint256",
          "name": "ticketIndex",
          "type": "uint256"
        }
      ],
      "name": "cancelTicket",
      "outputs": [],
      "stateMutability": "nonpayable",
      "type": "function"
    },
    {
      "inputs": [
        {
          "internalType": "address",
          "name": "user",
          "type": "address"
        }
      ],
      "name": "getTicketBalance",
      "outputs": [
        {
          "internalType": "uint256",
          "name": "",
          "type": "uint256"
        }
      ],
      "stateMutability": "view",
      "type": "function"
    },
    {
      "inputs": [
        {
          "internalType": "address",
          "name": "user",
          "type": "address"
        }
      ],
      "name": "getUserTickets",
      "outputs": [
        {
          "components": [
            {
              "internalType": "uint256",
              "name": "busId",
              "type": "uint256"
            },
            {
              "internalType": "uint256[]",
              "name": "seatNumbers",
              "type": "uint256[]"
            },
            {
              "internalType": "uint256",
              "name": "price",
              "type": "uint256"
            },
            {
              "internalType": "address",
              "name": "owner",
              "type": "address"
            },
            {
              "internalType": "bool",
              "name": "isValid",
              "type": "bool"
            }
          ],
          "internalType": "struct BusTicket.Ticket[]",
          "name": "",
          "type": "tuple[]"
        }
      ],
      "stateMutability": "view",
      "type": "function"
    },
    {
      "inputs": [],
      "name": "owner",
      "outputs": [
        {
          "internalType": "address",
          "name": "",
          "type": "address"
        }
      ],
      "stateMutability": "view",
      "type": "function"
    },
    {
      "inputs": [
        {
          "internalType": "uint256[]",
          "name": "seatNumbers",
          "type": "uint256[]"
        },
        {
          "internalType": "uint256",
          "name": "busId",
          "type": "uint256"
        }
      ],
      "name": "purchaseTicket",
      "outputs": [],
      "stateMutability": "payable",
      "type": "function"
    },
    {
      "inputs": [
        {
          "internalType": "uint256",
          "name": "",
          "type": "uint256"
        },
        {
          "internalType": "uint256",
          "name": "",
          "type": "uint256"
        }
      ],
      "name": "seatAvailability",
      "outputs": [
        {
          "internalType": "bool",
          "name": "",
          "type": "bool"
        }
      ],
      "stateMutability": "view",
      "type": "function"
    },
    {
      "inputs": [],
      "name": "ticketCounter",
      "outputs": [
        {
          "internalType": "uint256",
          "name": "",
          "type": "uint256"
        }
      ],
      "stateMutability": "view",
      "type": "function"
    },
    {
      "inputs": [
        {
          "internalType": "address",
          "name": "",
          "type": "address"
        },
        {
          "internalType": "uint256",
          "name": "",
          "type": "uint256"
        }
      ],
      "name": "userTickets",
      "outputs": [
        {
          "internalType": "uint256",
          "name": "busId",
          "type": "uint256"
        },
        {
          "internalType": "uint256",
          "name": "price",
          "type": "uint256"
        },
        {
          "internalType": "address",
          "name": "owner",
          "type": "address"
        },
        {
          "internalType": "bool",
          "name": "isValid",
          "type": "bool"
        }
      ],
      "stateMutability": "view",
      "type": "function"
    },
    {
      "inputs": [],
      "name": "withdraw",
      "outputs": [],
      "stateMutability": "nonpayable",
      "type": "function"
    }
  ],
  "bytecode": "0x608060405234801561001057600080fd5b5033600260006101000a81548173ffffffffffffffffffffffffffffffffffffffff021916908373ffffffffffffffffffffffffffffffffffffffff160217905550611716806100616000396000f3fe6080604052600436106100865760003560e01c80638da5cb5b116100595780638da5cb5b14610147578063cf260baf14610172578063e5da378f146101b2578063e7837c17146101ef578063ee355b1f1461020b57610086565b80630484a22f1461008b578063112b21c0146100c85780633ccfd60b146101055780638c4d59d01461011c575b600080fd5b34801561009757600080fd5b506100b260048036038101906100ad9190610d04565b610234565b6040516100bf9190610f5b565b60405180910390f35b3480156100d457600080fd5b506100ef60048036038101906100ea9190610fa9565b6103ae565b6040516100fc9190610ff8565b60405180910390f35b34801561011157600080fd5b5061011a6103dd565b005b34801561012857600080fd5b506101316104d8565b60405161013e9190611022565b60405180910390f35b34801561015357600080fd5b5061015c6104de565b604051610169919061104c565b60405180910390f35b34801561017e57600080fd5b5061019960048036038101906101949190611067565b610504565b6040516101a994939291906110a7565b60405180910390f35b3480156101be57600080fd5b506101d960048036038101906101d49190610d04565b61057e565b6040516101e69190611022565b60405180910390f35b61020960048036038101906102049190611245565b610671565b005b34801561021757600080fd5b50610232600480360381019061022d91906112a1565b6109b1565b005b60606000808373ffffffffffffffffffffffffffffffffffffffff1673ffffffffffffffffffffffffffffffffffffffff168152602001908152602001600020805480602002602001604051908101604052809291908181526020016000905b828210156103a357838290600052602060002090600402016040518060a0016040529081600082015481526020016001820180548060200260200160405190810160405280929190818152602001828054801561031057602002820191906000526020600020905b8154815260200190600101908083116102fc575b50505050508152602001600282015481526020016003820160009054906101000a900473ffffffffffffffffffffffffffffffffffffffff1673ffffffffffffffffffffffffffffffffffffffff1673ffffffffffffffffffffffffffffffffffffffff1681526020016003820160149054906101000a900460ff16151515158152505081526020019060010190610294565b505050509050919050565b60016020528160005260406000206020528060005260406000206000915091509054906101000a900460ff1681565b600260009054906101000a900473ffffffffffffffffffffffffffffffffffffffff1673ffffffffffffffffffffffffffffffffffffffff163373ffffffffffffffffffffffffffffffffffffffff161461046d576040517f08c379a000000000000000000000000000000000000000000000000000000000815260040161046490611351565b60405180910390fd5b600260009054906101000a900473ffffffffffffffffffffffffffffffffffffffff1673ffffffffffffffffffffffffffffffffffffffff166108fc479081150290604051600060405180830381858888f193505050501580156104d5573d6000803e3d6000fd5b50565b60035481565b600260009054906101000a900473ffffffffffffffffffffffffffffffffffffffff1681565b6000602052816000526040600020818154811061052057600080fd5b9060005260206000209060040201600091509150508060000154908060020154908060030160009054906101000a900473ffffffffffffffffffffffffffffffffffffffff16908060030160149054906101000a900460ff16905084565b6000806000905060005b6000808573ffffffffffffffffffffffffffffffffffffffff1673ffffffffffffffffffffffffffffffffffffffff16815260200190815260200160002080549050811015610667576000808573ffffffffffffffffffffffffffffffffffffffff1673ffffffffffffffffffffffffffffffffffffffff168152602001908152602001600020818154811061062157610620611371565b5b906000526020600020906004020160030160149054906101000a900460ff1615610654578180610650906113cf565b9250505b808061065f906113cf565b915050610588565b5080915050919050565b60008251116106b5576040517f08c379a00000000000000000000000000000000000000000000000000000000081526004016106ac90611463565b60405180910390fd5b600034116106f8576040517f08c379a00000000000000000000000000000000000000000000000000000000081526004016106ef906114cf565b60405180910390fd5b60005b82518110156107f95760016000838152602001908152602001600020600084838151811061072c5761072b611371565b5b6020026020010151815260200190815260200160002060009054906101000a900460ff1615610790576040517f08c379a00000000000000000000000000000000000000000000000000000000081526004016107879061153b565b60405180910390fd5b600180600084815260200190815260200160002060008584815181106107b9576107b8611371565b5b6020026020010151815260200190815260200160002060006101000a81548160ff02191690831515021790555080806107f1906113cf565b9150506106fb565b5060006040518060a001604052808381526020018481526020013481526020013373ffffffffffffffffffffffffffffffffffffffff1681526020016001151581525090506000803373ffffffffffffffffffffffffffffffffffffffff1673ffffffffffffffffffffffffffffffffffffffff1681526020019081526020016000208190806001815401808255809150506001900390600052602060002090600402016000909190919091506000820151816000015560208201518160010190805190602001906108cc929190610c28565b506040820151816002015560608201518160030160006101000a81548173ffffffffffffffffffffffffffffffffffffffff021916908373ffffffffffffffffffffffffffffffffffffffff16021790555060808201518160030160146101000a81548160ff021916908315150217905550505060036000815480929190610953906113cf565b91905055503373ffffffffffffffffffffffffffffffffffffffff167fb1abf8cae4386f6e07baa4378573f7d3b2bf422f48155f99bbf26fe8b5f529a760035484866040516109a4939291906115ca565b60405180910390a2505050565b6000803373ffffffffffffffffffffffffffffffffffffffff1673ffffffffffffffffffffffffffffffffffffffff168152602001908152602001600020805490508110610a34576040517f08c379a0000000000000000000000000000000000000000000000000000000008152600401610a2b90611654565b60405180910390fd5b60008060003373ffffffffffffffffffffffffffffffffffffffff1673ffffffffffffffffffffffffffffffffffffffff1681526020019081526020016000208281548110610a8657610a85611371565b5b906000526020600020906004020190508060030160149054906101000a900460ff16610ae7576040517f08c379a0000000000000000000000000000000000000000000000000000000008152600401610ade906116c0565b60405180910390fd5b60005b8160010180549050811015610b6d57600060016000846000015481526020019081526020016000206000846001018481548110610b2a57610b29611371565b5b9060005260206000200154815260200190815260200160002060006101000a81548160ff0219169083151502179055508080610b65906113cf565b915050610aea565b503373ffffffffffffffffffffffffffffffffffffffff166108fc82600201549081150290604051600060405180830381858888f19350505050158015610bb8573d6000803e3d6000fd5b5060008160030160146101000a81548160ff0219169083151502179055503373ffffffffffffffffffffffffffffffffffffffff167fea2df1906aa0678464bc2a22d5ed1eefedfa34eef24e9db4a75034297414befe83604051610c1c9190611022565b60405180910390a25050565b828054828255906000526020600020908101928215610c64579160200282015b82811115610c63578251825591602001919060010190610c48565b5b509050610c719190610c75565b5090565b5b80821115610c8e576000816000905550600101610c76565b5090565b6000604051905090565b600080fd5b600080fd5b600073ffffffffffffffffffffffffffffffffffffffff82169050919050565b6000610cd182610ca6565b9050919050565b610ce181610cc6565b8114610cec57600080fd5b50565b600081359050610cfe81610cd8565b92915050565b600060208284031215610d1a57610d19610c9c565b5b6000610d2884828501610cef565b91505092915050565b600081519050919050565b600082825260208201905092915050565b6000819050602082019050919050565b6000819050919050565b610d7081610d5d565b82525050565b600081519050919050565b600082825260208201905092915050565b6000819050602082019050919050565b6000610dae8383610d67565b60208301905092915050565b6000602082019050919050565b6000610dd282610d76565b610ddc8185610d81565b9350610de783610d92565b8060005b83811015610e18578151610dff8882610da2565b9750610e0a83610dba565b925050600181019050610deb565b5085935050505092915050565b610e2e81610cc6565b82525050565b60008115159050919050565b610e4981610e34565b82525050565b600060a083016000830151610e676000860182610d67565b5060208301518482036020860152610e7f8282610dc7565b9150506040830151610e946040860182610d67565b506060830151610ea76060860182610e25565b506080830151610eba6080860182610e40565b508091505092915050565b6000610ed18383610e4f565b905092915050565b6000602082019050919050565b6000610ef182610d31565b610efb8185610d3c565b935083602082028501610f0d85610d4d565b8060005b85811015610f495784840389528151610f2a8582610ec5565b9450610f3583610ed9565b925060208a01995050600181019050610f11565b50829750879550505050505092915050565b60006020820190508181036000830152610f758184610ee6565b905092915050565b610f8681610d5d565b8114610f9157600080fd5b50565b600081359050610fa381610f7d565b92915050565b60008060408385031215610fc057610fbf610c9c565b5b6000610fce85828601610f94565b9250506020610fdf85828601610f94565b9150509250929050565b610ff281610e34565b82525050565b600060208201905061100d6000830184610fe9565b92915050565b61101c81610d5d565b82525050565b60006020820190506110376000830184611013565b92915050565b61104681610cc6565b82525050565b6000602082019050611061600083018461103d565b92915050565b6000806040838503121561107e5761107d610c9c565b5b600061108c85828601610cef565b925050602061109d85828601610f94565b9150509250929050565b60006080820190506110bc6000830187611013565b6110c96020830186611013565b6110d6604083018561103d565b6110e36060830184610fe9565b95945050505050565b600080fd5b6000601f19601f8301169050919050565b7f4e487b7100000000000000000000000000000000000000000000000000000000600052604160045260246000fd5b61113a826110f1565b810181811067ffffffffffffffff8211171561115957611158611102565b5b80604052505050565b600061116c610c92565b90506111788282611131565b919050565b600067ffffffffffffffff82111561119857611197611102565b5b602082029050602081019050919050565b600080fd5b60006111c16111bc8461117d565b611162565b905080838252602082019050602084028301858111156111e4576111e36111a9565b5b835b8181101561120d57806111f98882610f94565b8452602084019350506020810190506111e6565b5050509392505050565b600082601f83011261122c5761122b6110ec565b5b813561123c8482602086016111ae565b91505092915050565b6000806040838503121561125c5761125b610c9c565b5b600083013567ffffffffffffffff81111561127a57611279610ca1565b5b61128685828601611217565b925050602061129785828601610f94565b9150509250929050565b6000602082840312156112b7576112b6610c9c565b5b60006112c584828501610f94565b91505092915050565b600082825260208201905092915050565b7f4f6e6c79206f776e65722063616e2063616c6c20746869732066756e6374696f60008201527f6e00000000000000000000000000000000000000000000000000000000000000602082015250565b600061133b6021836112ce565b9150611346826112df565b604082019050919050565b6000602082019050818103600083015261136a8161132e565b9050919050565b7f4e487b7100000000000000000000000000000000000000000000000000000000600052603260045260246000fd5b7f4e487b7100000000000000000000000000000000000000000000000000000000600052601160045260246000fd5b60006113da82610d5d565b91507fffffffffffffffffffffffffffffffffffffffffffffffffffffffffffffffff820361140c5761140b6113a0565b5b600182019050919050565b7f4d7573742073656c656374206174206c65617374206f6e652073656174000000600082015250565b600061144d601d836112ce565b915061145882611417565b602082019050919050565b6000602082019050818103600083015261147c81611440565b9050919050565b7f4d7573742073656e642045544820746f207075726368617365207469636b6574600082015250565b60006114b96020836112ce565b91506114c482611483565b602082019050919050565b600060208201905081810360008301526114e8816114ac565b9050919050565b7f5365617420616c72656164792074616b656e0000000000000000000000000000600082015250565b60006115256012836112ce565b9150611530826114ef565b602082019050919050565b6000602082019050818103600083015261155481611518565b9050919050565b600082825260208201905092915050565b600061157782610d76565b611581818561155b565b935061158c83610d92565b8060005b838110156115bd5781516115a48882610da2565b97506115af83610dba565b925050600181019050611590565b5085935050505092915050565b60006060820190506115df6000830186611013565b6115ec6020830185611013565b81810360408301526115fe818461156c565b9050949350505050565b7f496e76616c6964207469636b657420696e646578000000000000000000000000600082015250565b600061163e6014836112ce565b915061164982611608565b602082019050919050565b6000602082019050818103600083015261166d81611631565b9050919050565b7f5469636b657420616c72656164792063616e63656c6c65640000000000000000600082015250565b60006116aa6018836112ce565b91506116b582611674565b602082019050919050565b600060208201905081810360008301526116d98161169d565b905091905056fea2646970667358221220bd6ce46399778208ffc96523a7c69a6cdf80ba7bf0df27356d2ff4f2a73c5ed664736f6c63430008130033",
  "linkReferences": {},
  "deployedLinkReferences": {}
}